:0913300043C80530CEFDE5C922D9
:0713390075CA143004012203
:0E13400043C80530CEFDC2CEE5C930E0EF2235
:07134E0075CA1130040122F1
:0E13550043C80530CEFDC2CEE5C920E0EF2230
:0A13630053C8FB43C80130CEFD2241
:0D136D0075CA0E75C901716375CA1475C982
:03137A000080E60A
:0D137D0075CA0E75C901716375CA1175C975
:03138A000180D609
:04138D00F5C980D24C
:09139100E6F5C9716308D9F822E0
:09139A00E493F5C97163D9F8224E
:0E13A3004386108C828D83EA2CC5F0EB3DA8AA
:0213B100F0F951
:0713B30071397C4075CA216D
:0B13BA007130F0E8B58207E9B583034D
:0313C500716D2225
:0613C800DCF0716D80E510
:0B13CE00714E75CA218C828D83EAF9F4
:0413D900719A717D17
:0313DD00714E222C
:0C13E0008C828D837CF87D0012155874FF
:0913EC00F5C0E07413C0E0E473E5
:0113F50022D5
:0C13F600438610E4F550F551F552F55314
:0B140200714E75CA217455718D745332
:08140D00718D7442718D74535E
:0C141500718D788479047191789F7904BE
:0614210071917400718D51
:08142700717D714E7904789F7C
:03142F00913222D5
:01143200E4D5
:05143300F608D9FC22BF
:0E14FB007895E6C5F008E6FC08E6FD08E6FA7E
:0C15090008E6FBC5F0B4010471A38025C6
:07151500B4020471E0801E26
:07151C00B4040471CE801736
:07152300B41004B13F801079
:07152A00B41104B173800944
:07153100B41204B17780023F
:02153800B158A8
:05153A0071F602181813
:0C153F00E4F577F578F579F57A757B3FD7
:08154B00757C01757DEF757ED2
:051553000012128022CD
:05155800B13FE4F8F9C9
:0E155D00EC120F25ED120F25D3E438F8E43917
:08156B00F9B800EEB940EB22D3
:04157300B13FA19350
:0E1577008C778D788A798B7A789AE6F57B08E6
:0E158500E6F57C08E6F57D08E6F57E1212809C
:0A1593007888E6FB08E6FC08E6FD98
:0E159D00EBF5F033CC33CD33FBEC33CD33CB59
:0815AB0033FCE5F003541FFDC1
:0B15B300EB4C601C71397F2075CA21D1
:0C15BE007130120F257130120F25DFF480
:0715CA00716D1BBBFF011C4A
:0215D10080E0B8
:0815D300ED6013713975CA21A6
:0C15DB007130120F257130120F25DDF465
:0215E700716D24
:0115E90022DF
:00000001FF
